{
  "contractName": "Messenger",
  "abi": [
    {
      "anonymous": false,
      "inputs": [
        {
          "indexed": true,
          "internalType": "address",
          "name": "previousOwner",
          "type": "address"
        },
        {
          "indexed": true,
          "internalType": "address",
          "name": "newOwner",
          "type": "address"
        }
      ],
      "name": "OwnershipTransferred",
      "type": "event"
    },
    {
      "inputs": [],
      "name": "owner",
      "outputs": [
        {
          "internalType": "address",
          "name": "",
          "type": "address"
        }
      ],
      "stateMutability": "view",
      "type": "function",
      "constant": true
    },
    {
      "inputs": [],
      "name": "renounceOwnership",
      "outputs": [],
      "stateMutability": "nonpayable",
      "type": "function"
    },
    {
      "inputs": [
        {
          "internalType": "address",
          "name": "newOwner",
          "type": "address"
        }
      ],
      "name": "transferOwnership",
      "outputs": [],
      "stateMutability": "nonpayable",
      "type": "function"
    },
    {
      "inputs": [
        {
          "internalType": "bytes",
          "name": "str",
          "type": "bytes"
        },
        {
          "internalType": "uint32",
          "name": "nonce",
          "type": "uint32"
        }
      ],
      "name": "sendStr",
      "outputs": [
        {
          "internalType": "uint64",
          "name": "sequence",
          "type": "uint64"
        }
      ],
      "stateMutability": "nonpayable",
      "type": "function"
    },
    {
      "inputs": [
        {
          "internalType": "bytes",
          "name": "encodedVm",
          "type": "bytes"
        },
        {
          "internalType": "uint32",
          "name": "",
          "type": "uint32"
        }
      ],
      "name": "receiveBytes",
      "outputs": [],
      "stateMutability": "nonpayable",
      "type": "function"
    },
    {
      "inputs": [
        {
          "internalType": "uint16",
          "name": "chainId_",
          "type": "uint16"
        },
        {
          "internalType": "bytes32",
          "name": "bridgeContract_",
          "type": "bytes32"
        }
      ],
      "name": "registerChain",
      "outputs": [],
      "stateMutability": "nonpayable",
      "type": "function"
    },
    {
      "inputs": [],
      "name": "wormhole",
      "outputs": [
        {
          "internalType": "contract IWormhole",
          "name": "",
          "type": "address"
        }
      ],
      "stateMutability": "view",
      "type": "function",
      "constant": true
    }
  ],
  "bytecode": "0x60806040526001805473c89ce4735882c9f0f0fe26686c53074e09b0d5506001600160a01b0319918216811790925560028054909116909117905534801561004657600080fd5b5061005033610055565b6100a5565b600080546001600160a01b038381166001600160a01b0319831681178455604051919092169283917f8be0079c531659141344cd1fd0a4f28419497f9722a3daafe3b4186f6b6457e09190a35050565b610a7c806100b46000396000f3fe608060405234801561001057600080fd5b506004361061007d5760003560e01c80638da5cb5b1161005b5780638da5cb5b146100c957806394a65d08146100da578063f2fde38b14610106578063f7ea4c7c1461011957600080fd5b806365bb3ea714610082578063715018a61461009757806384acd1bb1461009f575b600080fd5b61009561009036600461084d565b61012c565b005b610095610176565b6002546001600160a01b03165b6040516001600160a01b0390911681526020015b60405180910390f35b6000546001600160a01b03166100ac565b6100ed6100e8366004610670565b6101ac565b60405167ffffffffffffffff90911681526020016100c0565b610095610114366004610649565b61023b565b610095610127366004610670565b6102d6565b6000546001600160a01b0316331461015f5760405162461bcd60e51b8152600401610156906108d1565b60405180910390fd5b61ffff909116600090815260046020526040902055565b6000546001600160a01b031633146101a05760405162461bcd60e51b8152600401610156906108d1565b6101aa6000610457565b565b6002546040516358cd21bf60e11b81526000916001600160a01b03169063b19a437e906101e29085908790600190600401610906565b602060405180830381600087803b1580156101fc57600080fd5b505af1158015610210573d6000803e3d6000fd5b505050506040513d601f19601f820116820180604052508101906102349190610878565b9392505050565b6000546001600160a01b031633146102655760405162461bcd60e51b8152600401610156906108d1565b6001600160a01b0381166102ca5760405162461bcd60e51b815260206004820152602660248201527f4f776e61626c653a206e6577206f776e657220697320746865207a65726f206160448201526564647265737360d01b6064820152608401610156565b6102d381610457565b50565b60025460405163607ec5ef60e11b8152600091829182916001600160a01b03169063c0fd8bde9061030b9088906004016108be565b60006040518083038186803b15801561032357600080fd5b505afa158015610337573d6000803e3d6000fd5b505050506040513d6000823e601f3d908101601f1916820160405261035f91908101906106fb565b9250925092508181906103855760405162461bcd60e51b815260040161015691906108be565b5061038f836104a7565b6103ce5760405162461bcd60e51b815260206004820152601060248201526f1034b73b30b634b21032b6b4ba3a32b960811b6044820152606401610156565b61014083015160009081526003602052604090205460ff16156104335760405162461bcd60e51b815260206004820152601960248201527f206d65737361676520616c7265616479207265636569766564000000000000006044820152606401610156565b505061014001516000908152600360205260409020805460ff191660011790555050565b600080546001600160a01b038381166001600160a01b0319831681178455604051919092169283917f8be0079c531659141344cd1fd0a4f28419497f9722a3daafe3b4186f6b6457e09190a35050565b6080810151606082015161ffff16600090815260046020526040812054909114156104d457506001919050565b506000919050565b600082601f8301126104ec578081fd5b8151602067ffffffffffffffff82111561050857610508610a0e565b610516818360051b01610985565b80838252828201915082860187848660071b8901011115610535578586fd5b855b8581101561059857608080838b03121561054f578788fd5b610557610938565b8351815286840151878201526040610570818601610638565b908201526060610581858201610638565b908201528552938501939190910190600101610537565b5090979650505050505050565b805180151581146105b557600080fd5b919050565b600082601f8301126105ca578081fd5b81516105dd6105d8826109b6565b610985565b8181528460208386010111156105f1578283fd5b6106028260208301602087016109de565b949350505050565b80516105b581610a24565b80516105b581610a34565b805167ffffffffffffffff811681146105b557600080fd5b805160ff811681146105b557600080fd5b60006020828403121561065a578081fd5b81356001600160a01b0381168114610234578182fd5b60008060408385031215610682578081fd5b823567ffffffffffffffff811115610698578182fd5b8301601f810185136106a8578182fd5b80356106b66105d8826109b6565b8181528660208385010111156106ca578384fd5b81602084016020830137836020838301015280945050505060208301356106f081610a34565b809150509250929050565b60008060006060848603121561070f578081fd5b835167ffffffffffffffff80821115610726578283fd5b90850190610160828803121561073a578283fd5b610742610961565b61074b83610638565b815261075960208401610615565b602082015261076a60408401610615565b604082015261077b6060840161060a565b60608201526080830151608082015261079660a08401610620565b60a08201526107a760c08401610638565b60c082015260e0830151828111156107bd578485fd5b6107c9898286016105ba565b60e0830152506101006107dd818501610615565b9082015261012083810151838111156107f4578586fd5b6108008a8287016104dc565b918301919091525061014083810151908201529450610821602087016105a5565b93506040860151915080821115610836578283fd5b50610843868287016105ba565b9150509250925092565b6000806040838503121561085f578182fd5b823561086a81610a24565b946020939093013593505050565b600060208284031215610889578081fd5b61023482610620565b600081518084526108aa8160208601602086016109de565b601f01601f19169290920160200192915050565b6020815260006102346020830184610892565b6020808252818101527f4f776e61626c653a2063616c6c6572206973206e6f7420746865206f776e6572604082015260600190565b63ffffffff841681526060602082015260006109256060830185610892565b905060ff83166040830152949350505050565b6040516080810167ffffffffffffffff8111828210171561095b5761095b610a0e565b60405290565b604051610160810167ffffffffffffffff8111828210171561095b5761095b610a0e565b604051601f8201601f1916810167ffffffffffffffff811182821017156109ae576109ae610a0e565b604052919050565b600067ffffffffffffffff8211156109d0576109d0610a0e565b50601f01601f191660200190565b60005b838110156109f95781810151838201526020016109e1565b83811115610a08576000848401525b50505050565b634e487b7160e01b600052604160045260246000fd5b61ffff811681146102d357600080fd5b63ffffffff811681146102d357600080fdfea2646970667358221220e35e9232f8dd0f3677cffb1383c977ddbffeb2a054ebecb797a52ae3aa81d70e64736f6c63430008040033",
  "immutableReferences": {},
  "source": "// contracts/Messenger.sol\n// SPDX-License-Identifier: Apache 2\n\npragma solidity ^0.8.0;\n\nimport \"./interfaces/IWormhole.sol\";\nimport \"@openzeppelin/contracts/access/Ownable.sol\";\n\ncontract Messenger is Ownable {\n    // Hardcode the Wormhole Core Bridge contract address\n    // In a real contract, we would set this in a constructor or Setup\n    address a = address(0xC89Ce4735882C9F0f0FE26686c53074E09B0D550);\n    IWormhole _wormhole = IWormhole(a);\n\n    mapping(bytes32 => bool) _completedMessages;\n    mapping(uint16 => bytes32) _bridgeContracts;\n\n    // sendStr sends bytes to the wormhole.\n    function sendStr(bytes memory str, uint32 nonce) public returns (uint64 sequence) {\n        sequence = _wormhole.publishMessage(nonce, str, 1);\n        return sequence;\n    }\n\n    // receiveStr confirms VAA and processes message on the receiving chain.\n    // Returns true when bytes are seen first time.\n    function receiveBytes(bytes memory encodedVm, uint32 /*nonce*/) public {\n        (IWormhole.VM memory vm, bool valid, string memory reason) = _wormhole.parseAndVerifyVM(encodedVm);\n        // 1. check wormhole signatures/\n        require(valid, reason);\n\n        // 2. Check if emtter chain contract is registered.\n        require(verifyBridgeVM(vm), \" invalid emitter\");   // ??? Can I check emitter here ??\n\n        // 3. Drop duplicate VAA.\n        require(!_completedMessages[vm.hash], \" message already received\");\n        _completedMessages[vm.hash] = true;\n\n        // Action place..\n        // At this point payload is good to be used for what actual contract needs to do. Like transfer(s) etc\n    }\n\n    // Check if receiveBytes emmiter is actually registered chan.\n    function verifyBridgeVM(IWormhole.VM memory vm) internal view returns (bool){\n        if(_bridgeContracts[vm.emitterChainId] == vm.emitterAddress) return true;\n        return false;\n    }\n    // We register chain,bridge in [mpn run register] command.\n    function registerChain(uint16 chainId_, bytes32 bridgeContract_) public onlyOwner {\n        _bridgeContracts[chainId_] = bridgeContract_;\n    }\n\n    function wormhole() public view returns (IWormhole) {\n        return _wormhole;\n    }\n}\n\n",
  "sourcePath": "/Users/shunjizhan/Acala/acala-wormhole-msg-passing/ethereum/contracts/Messenger.sol",
  "compiler": {
    "name": "solc",
    "version": "0.8.4+commit.c7e474f2.Emscripten.clang"
  },
  "schemaVersion": "3.4.4",
  "updatedAt": "2022-01-21T05:37:42.473Z",
  "networkType": "ethereum",
  "devdoc": {
    "kind": "dev",
    "methods": {
      "owner()": {
        "details": "Returns the address of the current owner."
      },
      "renounceOwnership()": {
        "details": "Leaves the contract without owner. It will not be possible to call `onlyOwner` functions anymore. Can only be called by the current owner. NOTE: Renouncing ownership will leave the contract without an owner, thereby removing any functionality that is only available to the owner."
      },
      "transferOwnership(address)": {
        "details": "Transfers ownership of the contract to a new account (`newOwner`). Can only be called by the current owner."
      }
    },
    "version": 1
  },
  "userdoc": {
    "kind": "user",
    "methods": {},
    "version": 1
  }
}